{
  "transactions": [
    {
      "hash": "0x635819d30a00f15cf8c3412d1f209cec06e1d53ba9f9626589f9c2ceddb4a487",
      "transactionType": "CALL",
      "contractName": null,
      "contractAddress": "0x62F343f5D40D72b56cDBfDd8C9fD1fbd096BE0D0",
      "function": "rollDice(address)",
      "arguments": [
        "0x5b73C5498c1E3b4dbA84de0F1833c4a029d90519"
      ],
      "transaction": {
        "from": "0xa66A585d84FF428C7CDa069C9C7430CebfDa0343",
        "to": "0x62F343f5D40D72b56cDBfDd8C9fD1fbd096BE0D0",
        "gas": "0x21ef1",
        "value": "0x0",
        "input": "0xdd02d9e50000000000000000000000005b73c5498c1e3b4dba84de0f1833c4a029d90519",
        "nonce": "0x85",
        "chainId": "0xaa36a7"
      },
      "additionalContracts": [],
      "isFixedGasLimit": false
    }
  ],
  "receipts": [
    {
      "status": "0x1",
      "cumulativeGasUsed": "0xa62925",
      "logs": [
        {
          "address": "0x9DdfaCa8183c41ad55329BdeeD9F6A8d53168B1B",
          "topics": [
            "0xeb0e3652e0f44f417695e6e90f2f42c99b65cd7169074c5a654b16b9748c3a4e",
            "0x787d74caea10b2b357790d5b5247c2f63d1d91572a9846f780606e4d953677ae",
            "0x1e4116b2b028323d9c608cd409449099ada69b7b4599f1423f8debc9741357f0",
            "0x00000000000000000000000062f343f5d40d72b56cdbfdd8c9fd1fbd096be0d0"
          ],
          "data": "0xfa75ce588156682ff0ee635c4420f3310caf7de86260258a8e3cfc393203e4c414d9bfbda91ba8a292e690a2139f0a5fe87b6b95b53ba85c3e7cf5fc33b97c7500000000000000000000000000000000000000000000000000000000000000030000000000000000000000000000000000000000000000000000000000030d40000000000000000000000000000000000000000000000000000000000000000100000000000000000000000000000000000000000000000000000000000000c0000000000000000000000000000000000000000000000000000000000000002492fd1338000000000000000000000000000000000000000000000000000000000000000000000000000000000000000000000000000000000000000000000000",
          "blockHash": "0xf25ef7ba037242bfdd1a51b64bb168d940ae15ffaec27eca7d591d918526cccd",
          "blockNumber": "0x997130",
          "blockTimestamp": "0x696a230c",
          "transactionHash": "0x635819d30a00f15cf8c3412d1f209cec06e1d53ba9f9626589f9c2ceddb4a487",
          "transactionIndex": "0x30",
          "logIndex": "0x11a",
          "removed": false
        },
        {
          "address": "0x62F343f5D40D72b56cDBfDd8C9fD1fbd096BE0D0",
          "topics": [
            "0x3e7fdeab84c01ce5308321caa0b460e1c4ec3c7099223d79634d9a71d99932e3",
            "0xfa75ce588156682ff0ee635c4420f3310caf7de86260258a8e3cfc393203e4c4",
            "0x0000000000000000000000005b73c5498c1e3b4dba84de0f1833c4a029d90519"
          ],
          "data": "0x",
          "blockHash": "0xf25ef7ba037242bfdd1a51b64bb168d940ae15ffaec27eca7d591d918526cccd",
          "blockNumber": "0x997130",
          "blockTimestamp": "0x696a230c",
          "transactionHash": "0x635819d30a00f15cf8c3412d1f209cec06e1d53ba9f9626589f9c2ceddb4a487",
          "transactionIndex": "0x30",
          "logIndex": "0x11b",
          "removed": false
        }
      ],
      "logsBloom": "0x00000000100000000000000000000000000000000020000000000000040001000000000000000000000000000000000000000000000000080000000000000000000000000000000000000000002000000004000000000000002002000008800008000000000040000000000000000000008000000000000000000001000000000008000000000000000000010000000000000000040000000000004000000000000000000000000000000002000000000000000000000000000000000000000000000000000000000000000000004000000000000000000000000000000000000000000000040800000000000000000000000008000000004000004000000200",
      "type": "0x2",
      "transactionHash": "0x635819d30a00f15cf8c3412d1f209cec06e1d53ba9f9626589f9c2ceddb4a487",
      "transactionIndex": "0x30",
      "blockHash": "0xf25ef7ba037242bfdd1a51b64bb168d940ae15ffaec27eca7d591d918526cccd",
      "blockNumber": "0x997130",
      "gasUsed": "0x18915",
      "effectiveGasPrice": "0x3f044f6e",
      "from": "0xa66A585d84FF428C7CDa069C9C7430CebfDa0343",
      "to": "0x62F343f5D40D72b56cDBfDd8C9fD1fbd096BE0D0",
      "contractAddress": null
    }
  ],
  "libraries": [],
  "pending": [],
  "returns": {},
  "timestamp": 1768563472,
  "chain": 11155111,
  "commit": "40c5961"
}