{
  "transactions": [
    {
      "hash": "0xdbc81e162ba4f87ad2b2e0038fad05e2a2af56905a684db4c18fd7dfd4027df3",
      "transactionType": "CALL",
      "contractName": null,
      "contractAddress": "0x62F343f5D40D72b56cDBfDd8C9fD1fbd096BE0D0",
      "function": "rollDice(address)",
      "arguments": [
        "0x5b73C5498c1E3b4dbA84de0F1833c4a029d90519"
      ],
      "transaction": {
        "from": "0xa66A585d84FF428C7CDa069C9C7430CebfDa0343",
        "to": "0x62F343f5D40D72b56cDBfDd8C9fD1fbd096BE0D0",
        "gas": "0x20fd5",
        "value": "0x0",
        "input": "0xdd02d9e50000000000000000000000005b73c5498c1e3b4dba84de0f1833c4a029d90519",
        "nonce": "0x84",
        "chainId": "0xaa36a7"
      },
      "additionalContracts": [],
      "isFixedGasLimit": false
    }
  ],
  "receipts": [
    {
      "status": "0x1",
      "cumulativeGasUsed": "0xbb0723",
      "logs": [
        {
          "address": "0x9DdfaCa8183c41ad55329BdeeD9F6A8d53168B1B",
          "topics": [
            "0xeb0e3652e0f44f417695e6e90f2f42c99b65cd7169074c5a654b16b9748c3a4e",
            "0x787d74caea10b2b357790d5b5247c2f63d1d91572a9846f780606e4d953677ae",
            "0x1e4116b2b028323d9c608cd409449099ada69b7b4599f1423f8debc9741357f0",
            "0x00000000000000000000000062f343f5d40d72b56cdbfdd8c9fd1fbd096be0d0"
          ],
          "data": "0x948a70f065267118d8c17f0107a60e69e46b8dbc81612924fed7ba3d2d1d05d4f7e8bc204a7e4c2059333b56d678dfc4783a19abce87504d61bf86cc6a3a8b9b00000000000000000000000000000000000000000000000000000000000000030000000000000000000000000000000000000000000000000000000000030d40000000000000000000000000000000000000000000000000000000000000000100000000000000000000000000000000000000000000000000000000000000c0000000000000000000000000000000000000000000000000000000000000002492fd1338000000000000000000000000000000000000000000000000000000000000000000000000000000000000000000000000000000000000000000000000",
          "blockHash": "0x83bc6b05c1521e2f2b85ad9e2bd3ed89206c1ca6c411edc3d778c9a2ef4b1b36",
          "blockNumber": "0x99712c",
          "blockTimestamp": "0x696a22dc",
          "transactionHash": "0xdbc81e162ba4f87ad2b2e0038fad05e2a2af56905a684db4c18fd7dfd4027df3",
          "transactionIndex": "0x33",
          "logIndex": "0x11b",
          "removed": false
        },
        {
          "address": "0x62F343f5D40D72b56cDBfDd8C9fD1fbd096BE0D0",
          "topics": [
            "0x3e7fdeab84c01ce5308321caa0b460e1c4ec3c7099223d79634d9a71d99932e3",
            "0x948a70f065267118d8c17f0107a60e69e46b8dbc81612924fed7ba3d2d1d05d4",
            "0x0000000000000000000000005b73c5498c1e3b4dba84de0f1833c4a029d90519"
          ],
          "data": "0x",
          "blockHash": "0x83bc6b05c1521e2f2b85ad9e2bd3ed89206c1ca6c411edc3d778c9a2ef4b1b36",
          "blockNumber": "0x99712c",
          "blockTimestamp": "0x696a22dc",
          "transactionHash": "0xdbc81e162ba4f87ad2b2e0038fad05e2a2af56905a684db4c18fd7dfd4027df3",
          "transactionIndex": "0x33",
          "logIndex": "0x11c",
          "removed": false
        }
      ],
      "logsBloom": "0x00000000000000000000000020000000000000000020000000000000040001000000000000000000000000000000000000000040000000080000000000000000000000000000000000000000002000000000000000000000002002000008800008000000000040000000000000000000008000000000000000000001000000000008000000000000000000010000020000000000040000000000004000000000000000000000000000000002000000000000000000000000000000000000000000000000000000000000000000004000000000000000000000000000000000000000000000040000000000000000000000000008000000004000004000000200",
      "type": "0x2",
      "transactionHash": "0xdbc81e162ba4f87ad2b2e0038fad05e2a2af56905a684db4c18fd7dfd4027df3",
      "transactionIndex": "0x33",
      "blockHash": "0x83bc6b05c1521e2f2b85ad9e2bd3ed89206c1ca6c411edc3d778c9a2ef4b1b36",
      "blockNumber": "0x99712c",
      "gasUsed": "0x17e25",
      "effectiveGasPrice": "0x3c36ffb9",
      "from": "0xa66A585d84FF428C7CDa069C9C7430CebfDa0343",
      "to": "0x62F343f5D40D72b56cDBfDd8C9fD1fbd096BE0D0",
      "contractAddress": null
    }
  ],
  "libraries": [],
  "pending": [],
  "returns": {},
  "timestamp": 1768563422,
  "chain": 11155111,
  "commit": "40c5961"
}