{
  "transactions": [
    {
      "hash": "0xa0d813f3837e4ad8cf38a271a4a5ee2533580f472ce22d3873122b12e409bba3",
      "transactionType": "CALL",
      "contractName": null,
      "contractAddress": "0x62F343f5D40D72b56cDBfDd8C9fD1fbd096BE0D0",
      "function": "rollDice(address)",
      "arguments": [
        "0x5b73C5498c1E3b4dbA84de0F1833c4a029d90519"
      ],
      "transaction": {
        "from": "0xa66A585d84FF428C7CDa069C9C7430CebfDa0343",
        "to": "0x62F343f5D40D72b56cDBfDd8C9fD1fbd096BE0D0",
        "gas": "0x2a092",
        "value": "0x0",
        "input": "0xdd02d9e50000000000000000000000005b73c5498c1e3b4dba84de0f1833c4a029d90519",
        "nonce": "0x83",
        "chainId": "0xaa36a7"
      },
      "additionalContracts": [],
      "isFixedGasLimit": false
    }
  ],
  "receipts": [
    {
      "status": "0x1",
      "cumulativeGasUsed": "0x7f6225",
      "logs": [
        {
          "address": "0x9DdfaCa8183c41ad55329BdeeD9F6A8d53168B1B",
          "topics": [
            "0xeb0e3652e0f44f417695e6e90f2f42c99b65cd7169074c5a654b16b9748c3a4e",
            "0x787d74caea10b2b357790d5b5247c2f63d1d91572a9846f780606e4d953677ae",
            "0x1e4116b2b028323d9c608cd409449099ada69b7b4599f1423f8debc9741357f0",
            "0x00000000000000000000000062f343f5d40d72b56cdbfdd8c9fd1fbd096be0d0"
          ],
          "data": "0x549073e40cce2cf46b55b0e49d64a892fcd618882bc649e9f3cf5319e30368dfe41e7e6089dd3f9071b08f2e609a7791f4be685dcc1e5d678480af7d9b2d8eda00000000000000000000000000000000000000000000000000000000000000030000000000000000000000000000000000000000000000000000000000030d40000000000000000000000000000000000000000000000000000000000000000100000000000000000000000000000000000000000000000000000000000000c0000000000000000000000000000000000000000000000000000000000000002492fd1338000000000000000000000000000000000000000000000000000000000000000000000000000000000000000000000000000000000000000000000000",
          "blockHash": "0xe8cdc275d3e2b0587b7168a4ac51b81f3200f5a9474b56f92de780d0cb0d82fa",
          "blockNumber": "0x997129",
          "blockTimestamp": "0x696a22b8",
          "transactionHash": "0xa0d813f3837e4ad8cf38a271a4a5ee2533580f472ce22d3873122b12e409bba3",
          "transactionIndex": "0x33",
          "logIndex": "0x3c",
          "removed": false
        },
        {
          "address": "0x62F343f5D40D72b56cDBfDd8C9fD1fbd096BE0D0",
          "topics": [
            "0x3e7fdeab84c01ce5308321caa0b460e1c4ec3c7099223d79634d9a71d99932e3",
            "0x549073e40cce2cf46b55b0e49d64a892fcd618882bc649e9f3cf5319e30368df",
            "0x0000000000000000000000005b73c5498c1e3b4dba84de0f1833c4a029d90519"
          ],
          "data": "0x",
          "blockHash": "0xe8cdc275d3e2b0587b7168a4ac51b81f3200f5a9474b56f92de780d0cb0d82fa",
          "blockNumber": "0x997129",
          "blockTimestamp": "0x696a22b8",
          "transactionHash": "0xa0d813f3837e4ad8cf38a271a4a5ee2533580f472ce22d3873122b12e409bba3",
          "transactionIndex": "0x33",
          "logIndex": "0x3d",
          "removed": false
        }
      ],
      "logsBloom": "0x00000000000000000000000000000000000000000020000000000000040001000000000000000000000020000000000000000000000000080000000000000000000000000000000000000000002000000800000000000000002002000008800008000000000040000000000000000000008000000000000000000001000000000008000000000000000000010000000000000000040000000000004000000000000000002000000000000002000000000000000000000000000000000000000000000000000000000000000000004000000000000000000000000000000000000000000000040000000000000000000000000008000000004000004000000200",
      "type": "0x2",
      "transactionHash": "0xa0d813f3837e4ad8cf38a271a4a5ee2533580f472ce22d3873122b12e409bba3",
      "transactionIndex": "0x33",
      "blockHash": "0xe8cdc275d3e2b0587b7168a4ac51b81f3200f5a9474b56f92de780d0cb0d82fa",
      "blockNumber": "0x997129",
      "gasUsed": "0x1cbe1",
      "effectiveGasPrice": "0x3f4a2d7a",
      "from": "0xa66A585d84FF428C7CDa069C9C7430CebfDa0343",
      "to": "0x62F343f5D40D72b56cDBfDd8C9fD1fbd096BE0D0",
      "contractAddress": null
    }
  ],
  "libraries": [],
  "pending": [],
  "returns": {},
  "timestamp": 1768563388,
  "chain": 11155111,
  "commit": "40c5961"
}